:020000040000FA
:060000004EEF6AF0120051
:0600080004EF50F01200AD
:060018000CEF50F0120095
:06A000004EEF6AF01200B1
:02A00600120046
:06A008001CEF50F01200F5
:02A00E00000050
:03A010000000004D
:06A0180025EF50F01200DC
:02A01E0002003E
:10A020000EA000007B0000000500000075D20000BB
:08A030008400000001000000A3
:08A03800DACFE4FFE2CFDAFF0A
:10A04000E652E552E5CFDAFF1100D8CFE4FFE0CFCA
:10A05000E4FFE46EDACFE4FFE2CFDAFFE652E55246
:10A06000E5CFDAFFE550E5CFE0FFE5CFD8FF100000
:10A0700081EC67F0ECEC67F012EC65F061EC5FF0FE
:10A08000E66A46EC60F0E552120067EC69F0000900
:10A0900001E1FBD70F014869496938EF50F081B001
:10A0A0001FD000017CC010F07DC011F07EC012F006
:10A0B0007FC013F07C2B000E7D237E237F23D8806E
:10A0C0000A0E1054000E1154000E1254000E1354B8
:10A0D00006E27C6B7D6B7E6B7F6B010E7B6F11D01C
:10A0E00000017B050EE17C517D117E117F1104E1A1
:10A0F0007B6B010E08D005D07C07000E7D5B7E5B7C
:10A100007F5B000E00D01200D9CFE6FFE1CFD9FF70
:10A11000260EE126060EDB6AD950070FE96EDACF6C
:10A12000EAFFEE6AEE6AEE6AEE6AEE6AEE6AEE6ADE
:10A13000EE6AEE6AEE6AEE6AEE6AEE6AEE6AEE6A5F
:10A14000EE6AEE6AEE6AEE6A200EDB6A210EDB6AC8
:10A15000220EDB6A230EDB6A240EDB6A250EDB6A25
:10A16000020EE66EF5EC65F0E552E76E1A0EE7CFEB
:10A17000DBFF030EE66EF5EC65F0E552E76E1B0EB5
:10A18000E7CFDBFFDE6ADD6ADBCF10F010C011F035
:10A19000106A10C0DEFF11C0DDFF1A0EDB50DF12A7
:10A1A000D9CFE9FFDACFEAFF060E0F0B06E0EC523B
:10A1B000D890ED32EF32E806FAE1010EDB50020BE7
:10A1C00007E0D9CFE9FFDACFEAFFEE52FC0EED123D
:10A1D000DECF10F0DDCF11F0D89010361136D890C8
:10A1E0001036113610C0DEFF11C0DDFFD950060F4A
:10A1F000E66E000EDA20E66EDECFE6FFDDCFE6FF8C
:10A20000C1EC66F0E552E552E552E552D950060F31
:10A21000E66E000EDA20E66E4CEC66F0E552E55292
:10A220001E0EF3CFDBFF1F0EF4CFDBFF1E0EDBCFC6
:10A2300010F01F0EDBCF11F0220EDBCF12F0230E39
:10A24000DBCF13F013501118E8AE02D0113404D054
:10A250001050125C115013580CE21E0EDBCF08F0A8
:10A260001F0EDBCF09F0220E08C0DBFF230E09C052
:10A27000DBFF320E106E116A220EDBCF08F0230EC8
:10A28000DBCF09F010C00DF011C00EF002EC6AF047
:10A29000200E08C0DBFF210E09C0DBFF040EE66EB6
:10A2A000F5EC65F0E552E76E1A0EE7CFDBFF050E21
:10A2B000E66EF5EC65F0E552E76E1B0EE7CFDBFFCF
:10A2C000020EDB6A030EDB6A1B0EDBCF10F010C040
:10A2D00011F0106A020E10C0DBFF030E11C0DBFF8D
:10A2E0001A0EDB50106E116AD950020FE96EDACFE8
:10A2F000EAFF1050EE121150ED12D950020FE96E24
:10A30000DACFEAFF060E0F0B06E0EC52D890ED32E2
:10A31000EF32E806FAE1030EDB50020B08E0D950F9
:10A32000020FE96EDACFEAFFEE52FC0EED12DECF3D
:10A3300010F0DDCF11F0D89010361136D8901036CD
:10A34000113610C0DEFF11C0DDFFD950060FE66EDA
:10A35000000EDA20E66E020EDBCFE6FF030EDBCF47
:10A36000E6FFC1EC66F0E552E552E552E552D95000
:10A37000060FE66E000EDA20E66E4CEC66F0E55253
:10A38000E5521E0EF3CFDBFF1F0EF4CFDBFF1E0ED8
:10A39000DBCF10F01F0EDBCF11F0240EDBCF12F05D
:10A3A000250EDBCF13F013501118E8AE02D0113494
:10A3B00004D01050125C115013580CE21E0EDBCF6B
:10A3C00008F01F0EDBCF09F0240E08C0DBFF250EBE
:10A3D00009C0DBFF060EE66EF5EC65F0E552E76EB0
:10A3E0001A0EE7CFDBFF070EE66EF5EC65F0E552DF
:10A3F000E76E1B0EE7CFDBFF040EDB6A050EDB6AA0
:10A400001B0EDBCF10F010C011F0106A040E10C04C
:10A41000DBFF050E11C0DBFF1A0EDB50106E116A58
:10A42000D950040FE96EDACFEAFF1050EE12115046
:10A43000ED12D950040FE96EDACFEAFF060E0F0BCA
:10A4400006E0EC52D890ED32EF32E806FAE1050E64
:10A45000DB50020B08E0D950040FE96EDACFEAFFB7
:10A46000EE52FC0EED12D950060FE66E000EDA2009
:10A47000E66E040EDBCFE6FF050EDBCFE6FFC1EC98
:10A4800066F0E552E552E552E552D950060FE66E08
:10A49000000EDA20E66E4CEC66F0E552E5521E0E38
:10A4A000F3CFDBFF1F0EF4CFDBFF1E0EDBCF10F070
:10A4B0001F0EDBCF11F0D880115004E7C60E105CE0
:10A4C000FF0E115838E2240EDB6A250EDB6A220EDD
:10A4D000DB6A230EDB6A010EF36E200EF3CFDBFF87
:10A4E000210EDB6A200EDBCFE6FF210EDBCFE6FF7D
:10A4F000370EE66E050EE66E180EE66E29EC61F07C
:10A50000106E050EE15E1050200EDBCFE6FF210E2F
:10A51000DBCFE6FF370EE66E040EE66E180EE66E33
:10A5200029EC61F0106E050EE15E1050010EF36E25
:10A53000F46A04D003D0F36AF46A00D0260EE15C1A
:10A5400002E2E16AE552E16EE552E7CFD9FF12007F
:10A55000D9CFE6FFE1CFD9FF260EE126060EDB6A52
:10A56000D950070FE96EDACFEAFFEE6AEE6AEE6ABB
:10A57000EE6AEE6AEE6AEE6AEE6AEE6AEE6AEE6A1B
:10A58000EE6AEE6AEE6AEE6AEE6AEE6AEE6AEE6A0B
:10A59000200EDB6A210EDB6A220EDB6A230EDB6AE9
:10A5A000240EDB6A250EDB6A0D0EF36E1C0EF3CF54
:10A5B000DBFF1D0EDB6A1C0EDBCF10F01D0EDBCFA8
:10A5C00011F0113404E210502808000E115412E367
:10A5D0001C0EDBCFE6FFB40EE66E200EE66E1DEC21
:10A5E00062F0E552E552E5521C0EDB2A1D0E01E336
:10A5F000DB2AE1D7020EE66EF5EC65F0E552E76E78
:10A600001A0EE7CFDBFF030EE66EF5EC65F0E552C0
:10A61000E76E1B0EE7CFDBFFDE6ADD6ADBCF10F0F3
:10A6200010C011F0106A10C0DEFF11C0DDFF1A0E5D
:10A63000DB50DF12D9CFE9FFDACFEAFF060E0F0BAE
:10A6400006E0EC52D890ED32EF32E806FAE1010E66
:10A65000DB50020B07E0D9CFE9FFDACFEAFFEE5279
:10A66000FC0EED12DECF10F0DDCF11F0D8901036D9
:10A670001136D8901036113610C0DEFF11C0DDFF44
:10A68000D950060FE66E000EDA20E66EDECFE6FF4A
:10A69000DDCFE6FFC1EC66F0E552E552E552E5524A
:10A6A000DECF10F0DDCF11F0000E105C000E11585F
:10A6B0000FE3D9CFE9FFDACFEAFF320ED880EE54AC
:10A6C000000EED5405E3010EF36EF46A4DD04CD04C
:10A6D000DECF10F0DDCF11F0330E105C000E1158FC
:10A6E0000FE3D9CFE9FFDACFEAFF640ED880EE544A
:10A6F000000EED5405E3020EF36EF46A35D034D04B
:10A70000DECF10F0DDCF11F0650E105C000E115899
:10A710000FE3D9CFE9FFDACFEAFF960ED880EE54E7
:10A72000000EED5405E3030EF36EF46A1DD01CD049
:10A73000DECF10F0DDCF11F0970E105C000E115837
:10A740000FE3D9CFE9FFDACFEAFFC80ED880EE5485
:10A75000000EED5405E3040EF36EF46A05D004D048
:10A76000010EF36EF46A00D0260EE15C02E2E16AAB
:10A77000E552E16EE552E7CFD9FF1200D9CFE6FFEF
:10A78000E1CFD9FF080EE126ECEC67F0E66A84EC35
:10A7900067F0E552020EF3CFDBFF030EF4CFDBFFD1
:10A7A000E66E84EC67F0E552F3CFDEFFF4CFDDFF19
:10A7B000010EE66E84EC67F0E552040EF3CFDBFF8A
:10A7C000050EF4CFDBFF020EE66E84EC67F0E55277
:10A7D000060EF3CFDBFF070EF4CFDBFF130EC26EC6
:10A7E000D950060FE96EDACFEAFFD40ED880EE54C6
:10A7F000030EED5402E2640E27D0060EDBCF10F0FC
:10A80000070EDBCF11F0CF0E105C030E115802E2E1
:10A81000780E1AD0D950040FE96EDACFEAFFC50ED0
:10A82000D880EE54030EED5402E2750E0DD0040EE6
:10A83000DBCF10F0050EDBCF11F0C00E105C030E65
:10A84000115802E2780E00D0106E080EE15C02E2B0
:10A85000E16AE552E16E1050E552E7CFD9FF1200F0
:10A86000D9CFE6FFE1CFD9FF080EE126ECEC67F087
:10A87000E66A84EC67F0E552020EF3CFDBFF030ECD
:10A88000F4CFDBFFE66E84EC67F0E552F3CFDEFF3A
:10A89000F4CFDDFF010EE66E84EC67F0E552040EA6
:10A8A000F3CFDBFF050EF4CFDBFF020EE66E84EC88
:10A8B00067F0E552060EF3CFDBFF070EF4CFDBFFA8
:10A8C000130EC26ED9CFE9FFDACFEAFF200ED8808F
:10A8D000EE54030EED5403E2780E03D002D06C0E5A
:10A8E00000D0106E080EE15C02E2E16AE552E16E12
:10A8F0001050E552E7CFD9FF1200D9CFE6FFE1CFE4
:10A90000D9FF080EE126ECEC67F0E66A84EC67F00C
:10A91000E552020EF3CFDBFF030EF4CFDBFFE66E52
:10A9200084EC67F0E552F3CFDEFFF4CFDDFF010EDC
:10A93000E66E84EC67F0E552040EF3CFDBFF050E04
:10A94000F4CFDBFF020EE66E84EC67F0E552060EF4
:10A95000F3CFDBFF070EF4CFDBFF130EC26ED9502F
:10A96000020FE96EDACFEAFF200ED880EE54030E14
:10A97000ED5403E2780E03D002D0720E00D0106EB8
:10A98000080EE15C02E2E16AE552E16E1050E55228
:10A99000E7CFD9FF1200D9CFE6FFE1CFD9FF200ED4
:10A9A000E126C30EC2141009C26EC282C2B2FED723
:10A9B000D950020FE66E000EDA20E66EC3CFE6FF36
:10A9C000C4CFE6FFC1EC66F0E552E552E552E55230
:10A9D000E80EC35C030EC45814E2EE0ED880C354D4
:10A9E000020EC4540EE2B30EE66EB20EE66EE668D8
:10A9F0007FEC60F0E552E552E552010EF36EF46A29
:10AA00004BD0EE0EC35C020EC45814E2F40ED88094
:10AA1000C354010EC4540EE2B40EE66EB30EE66EDD
:10AA2000E6687FEC60F0E552E552E552020EF36E07
:10AA3000F46A32D0F40EC35C010EC45814E2FA0E6C
:10AA4000D880C354000EC4540EE2B50EE66EB40EA8
:10AA5000E66EE6687FEC60F0E552E552E552030EE3
:10AA6000F36EF46A19D0FA0EC35C000EC45814E2F7
:10AA7000000ED880C354000EC4540EE2B60EE66E2B
:10AA8000B50EE66EE6687FEC60F0E552E552E55201
:10AA9000040EF36EF46A00D0200EE15C02E2E16A7B
:10AAA000E552E16EE552E7CFD9FF1200D9CFE6FFBC
:10AAB000E1CFD9FF200EE126C30EC2141009C26EE9
:10AAC000C282C2B2FED7D950020FE66E000EDA2063
:10AAD000E66EC3CFE6FFC4CFE6FFC1EC66F0E552F9
:10AAE000E552E552E552E80EC35C030EC45815E288
:10AAF000EE0ED880C354020EC4540FE2B30EE66EBD
:10AB0000B20EE66EE6687FEC60F0E552E552E55283
:10AB1000010EF36EF46A8BD08AD0EE0EC35C020E87
:10AB2000C45815E2580ED880C354020EC4540FE224
:10AB3000B40EE66EB30EE66EE6687FEC60F0E552AA
:10AB4000E552E552020EF36EF46A71D070D0580EE1
:10AB5000C35C020EC45815E2C20ED880C354010E65
:10AB6000C4540FE2B50EE66EB40EE66EE6687FECF6
:10AB700060F0E552E552E552030EF36EF46A57D0E9
:10AB800056D0C20EC35C010EC45815E22C0ED880FC
:10AB9000C354010EC4540FE2B60EE66EB50EE66E57
:10ABA000E6687FEC60F0E552E552E552040EF36E84
:10ABB000F46A3DD03CD02C0EC35C010EC4580FE2A9
:10ABC000B70EE66EB60EE66EE6687FEC60F0E55214
:10ABD000E552E552050EF36EF46A29D028D0960EA0
:10ABE000C35C000EC45815E2000ED880C354000E9A
:10ABF000C4540FE2B80EE66EB70EE66EE6687FEC60
:10AC000060F0E552E552E552060EF36EF46A0FD09D
:10AC10000ED0B30EE66EB20EE66EE6687FEC60F024
:10AC2000E552E552E552060EF36EF46A00D0200EAE
:10AC3000E15C02E2E16AE552E16EE552E7CFD9FF5D
:10AC40001200E66AE66A0E0EE66ECA0EE66E49EC81
:10AC500062F0E552E552E552E552E66A010EE66E13
:10AC60000C0EE66ECA0EE66E49EC62F0E552E55255
:10AC7000E552E552E66A020EE66EF60EE66EC90E83
:10AC8000E66E49EC62F0E552E552E552E552E66ABD
:10AC9000030EE66EE00EE66EC90EE66E49EC62F05B
:10ACA000E552E552E552E552E66A040EE66ECA0E3A
:10ACB000E66EC90EE66E49EC62F0E552E552E552E9
:10ACC000E552E66A050EE66EB40EE66EC90EE66E55
:10ACD00049EC62F0E552E552E552E552E66A060EAD
:10ACE000E66E9E0EE66EC90EE66E49EC62F0E55227
:10ACF000E552E552E552E66A070EE66E9E0EE66EF6
:10AD0000C90EE66E49EC62F0E552E552E552E552B5
:10AD10001200D9CFE6FFE1CFD9FF080EE126DE6AA7
:10AD2000DD6A710EF36E020EF3CFDBFF030EDB6AFA
:10AD3000040EDB6A050EDB6A060EDB6A710EF36E2B
:10AD4000070EF3CFDBFF1ADDE76E070EE7CFDBFF61
:10AD5000DB50750805E1080EE15C01E3F0D0EDD0B1
:10AD6000CCDDE76E020EE7CFDBFFDB50720821E19E
:10AD7000010EF36E030EF3CFDBFF040EDB6AD95036
:10AD8000030FE96EDACFEAFF010EEE1801E1ED5094
:10AD900010E1050EDBCFE6FF060EDBCFE6FFD4D8D1
:10ADA000E552E552030EF3CFDBFF040EF4CFDBFFD9
:10ADB000E6D7E66AE66A880EE66EC90EE66E49ECEC
:10ADC00062F0E552E552E552E552E66A010EE66EA2
:10ADD0000C0EE66ECA0EE66E49EC62F0E552E552E4
:10ADE000E552E552E66A020EE66E720EE66EC90E96
:10ADF000E66E49EC62F0E552E552E552E552E66A4C
:10AE0000030EE66E5C0EE66EC90EE66E49EC62F06D
:10AE1000E552E552E552E552E66A040EE66E460E4C
:10AE2000E66EC90EE66E49EC62F0E552E552E55277
:10AE3000E552E66A050EE66E300EE66EC90EE66E67
:10AE400049EC62F0E552E552E552E552E66A060E3B
:10AE5000E66E9E0EE66EC90EE66E49EC62F0E552B5
:10AE6000E552E552E552A8EC52F0F3CFDEFFF4CF05
:10AE7000DDFF000EDFCF08F0010EDBCF09F0040E7E
:10AE8000081801E1095046E0030E081801E10950D5
:10AE90002FE0020E081801E1095018E0010E081811
:10AEA00001E1095001E048D0B30EE66EB20EE66E45
:10AEB000E668EEEC60F0E552E552E552010EF36E05
:10AEC000050EF3CFDBFF060EDB6A36D0B40EE66E5E
:10AED000B30EE66EE668EEEC60F0E552E552E55240
:10AEE000020EF36E050EF3CFDBFF060EDB6A24D0F5
:10AEF000B50EE66EB40EE66EE668EEEC60F0E55276
:10AF0000E552E552030EF36E050EF3CFDBFF060E9E
:10AF1000DB6A12D0B60EE66EB50EE66EE668EEECB3
:10AF200060F0E552E552E552040EF36E050EF3CFE4
:10AF3000DBFF060EDB6A00D006D7E16AE552E16E60
:10AF4000E552E7CFD9FF1200D9CFE6FFE1CFD9FF15
:10AF50003E0EE126DE6ADD6AD950020FE66E000E73
:10AF6000DA20E66EFD0EDBCFE6FFFE0EDBCFE6FF5E
:10AF7000C1EC66F0E552E552E552E552280EE66E68
:10AF8000040EE66ED950020FE66E000EDA20E66E71
:10AF900083EC62F0E552E552E552E552E66A020EB4
:10AFA000E66E9E0EE66EC90EE66E49EC62F0E55264
:10AFB000E552E552E552E66A030EE66E9E0EE66E37
:10AFC000C90EE66E49EC62F0E552E552E552E552F3
:10AFD000E66A040EE66E1A0EE66EC90EE66E49ECDF
:10AFE00062F0E552E552E552E552E66A050EE66E7C
:10AFF000040EE66EC90EE66E49EC62F0E552E552CB
:10B00000E552E552E66A060EE66EEE0EE66EC80EF4
:10B01000E66E49EC62F0E552E552E552E552E66A29
:10B02000070EE66E9E0EE66EC90EE66E49EC62F005
:10B03000E552E552E552E55213DC106E116A10BE7E
:10B04000116810C0DEFF11C0DDFFD950200FE66E81
:10B05000000EDA20E66EDECFE6FFDDCFE6FFC1ECC4
:10B0600066F0E552E552E552E552D9CFE9FFDACF75
:10B07000EAFF780EEE1801E1ED5004E0F36AF46A9D
:10B0800006D06AD7010EF36EF46A01D000D03E0EEE
:10B09000E15C02E2E16AE552E16EE552E7CFD9FFF9
:10B0A0001200D9CFE6FFE1CFD9FF090EE126030E4A
:10B0B000DB6A040EDB6A050EDB6A060EDB6A070E2E
:10B0C000DB6A080EDB6ADE52710EDD6EF36E020E75
:10B0D000F3CFDBFF84EC50F0070EF3CFDBFF080E5D
:10B0E000F4CFDBFFD950070FE96EDACFEAFF010E8C
:10B0F000EE1801E1ED5007E1F36AF46A090EE15C34
:10B1000001E39BD298D24FEC50F0DF6EDF5021E08C
:10B11000010EF36E050EF3CFDBFF060EDB6AD9508E
:10B12000050FE96EDACFEAFF010EEE1801E1ED50EE
:10B1300010E1030EDBCFE6FF040EDBCFE6FF04DFFA
:10B14000E552E552050EF3CFDBFF060EF4CFDBFF31
:10B15000E6D7030EDBCF10F0040EDBCF11F00001B9
:10B16000800E111474E1030EDBCF12F0040EDBCF5E
:10B1700013F0133404E212500508000E135467E371
:10B18000E66AE66AD80EE66EC80EE66E49EC62F034
:10B19000E552E552E552E552E66A010EE66E0C0E06
:10B1A000E66ECA0EE66E49EC62F0E552E552E552F3
:10B1B000E552E66A020EE66EC20EE66EC80EE66E56
:10B1C00049EC62F0E552E552E552E552E66A030EBB
:10B1D000E66EAC0EE66EC80EE66E49EC62F0E55225
:10B1E000E552E552E552E66A040EE66E960EE66E0C
:10B1F000C80EE66E49EC62F0E552E552E552E552C2
:10B20000E66A050EE66E800EE66EC80EE66E49EC46
:10B2100062F0E552E552E552E552E66A060EE66E48
:10B220006A0EE66EC80EE66E49EC62F0E552E55233
:10B23000E552E552E66A070EE66E540EE66EC80E5B
:10B24000E66E49EC62F0E552E552E552E552BEEC9D
:10B2500053F0E76E010EE7CFDBFFDB50640812E12D
:10B26000010EE76E030EDBCF10F0040EDBCF11F002
:10B27000E7501026000E1122030E10C0DBFF040E53
:10B2800011C0DBFF010EDB5075080FE1030EDBCFB1
:10B2900010F0040EDBCF11F01006000E115A030E51
:10B2A00010C0DBFF040E11C0DBFF030EDBCF10F07C
:10B2B000040EDBCF11F0D890115004E6060E105C9E
:10B2C000000E115874E3030EDBCF12F0040EDBCF37
:10B2D00013F0133404E212500B08000E135467E30A
:10B2E000E66AE66AD80EE66EC80EE66E49EC62F0D3
:10B2F000E552E552E552E552E66A010EE66E0C0EA5
:10B30000E66ECA0EE66E49EC62F0E552E552E55291
:10B31000E552E66A020EE66E3E0EE66EC80EE66E78
:10B3200049EC62F0E552E552E552E552E66A030E59
:10B33000E66E280EE66EC80EE66E49EC62F0E55247
:10B34000E552E552E552E66A040EE66E120EE66E2E
:10B35000C80EE66E49EC62F0E552E552E552E55260
:10B36000E66A050EE66EFC0EE66EC70EE66E49EC6A
:10B3700062F0E552E552E552E552E66A060EE66EE7
:10B38000E60EE66EC70EE66E49EC62F0E552E55257
:10B39000E552E552E66A070EE66ED00EE66EC70E7F
:10B3A000E66E49EC62F0E552E552E552E552030ED5
:10B3B000DBCF10F0040EDBCF11F0D890115004E673
:10B3C0000C0E105C000E115874E3030EDBCF12F06C
:10B3D000040EDBCF13F0133404E212500F08000EFA
:10B3E000135467E3E66AE66AD80EE66EC80EE66EA8
:10B3F00049EC62F0E552E552E552E552E66A010E8B
:10B40000E66E0C0EE66ECA0EE66E49EC62F0E55290
:10B41000E552E552E552E66A020EE66EE60EE66E8B
:10B42000C70EE66E49EC62F0E552E552E552E55290
:10B43000E66A030EE66ED00EE66EC70EE66E49ECC7
:10B4400062F0E552E552E552E552E66A040EE66E18
:10B45000BA0EE66EC70EE66E49EC62F0E552E552B2
:10B46000E552E552E66A050EE66EA40EE66EC70EDC
:10B47000E66E49EC62F0E552E552E552E552E66AC5
:10B48000060EE66E8E0EE66EC70EE66E49EC62F0B4
:10B49000E552E552E552E552E66A070EE66E780E91
:10B4A000E66EC70EE66E49EC62F0E552E552E552F3
:10B4B000E552030EDBCF10F0040EDBCF11F0D89075
:10B4C000115004E60F0E105C000E115807E30F0E2A
:10B4D000F36E030EF3CFDBFF040EDB6A030EDBCF4C
:10B4E00010F0040EDBCF11F0113404E2105000080C
:10B4F000000E115404E3030EDB6A040EDB6A030E34
:10B50000DBCF08F0040EDBCF09F0050E081801E1CF
:10B51000095001E183D00F0E081801E1095001E143
:10B520007DD0040E081801E109506DE00E0E0818D8
:10B5300001E1095068E0030E081801E1095058E0E4
:10B540000D0E081801E1095053E0090E081801E139
:10B5500009504EE0020E081801E109503EE00C0EC1
:10B56000081801E1095039E0080E081801E10950F6
:10B5700034E0010E081801E1095024E00B0E081810
:10B5800001E109501FE0070E081801E109501AE017
:10B59000085001E109500BE00A0E081801E10950BA
:10B5A00006E0060E081801E1095001E042D0B30E92
:10B5B000E66EB20EE66EE668EEEC60F0E552E5523D
:10B5C000E55238D0B40EE66EB30EE66EE668EEECE9
:10B5D00060F0E552E552E5522DD0B50EE66EB40EA0
:10B5E000E66EE668EEEC60F0E552E552E55222D0F8
:10B5F000B60EE66EB50EE66EE668EEEC60F0E5526D
:10B60000E552E55217D0B70EE66EB60EE66EE66866
:10B61000EEEC60F0E552E552E5520CD0B80EE66E65
:10B62000B70EE66EE668EEEC60F0E552E552E552E4
:10B6300001D000D04FD5E16AE552E16EE552E7CF87
:10B64000D9FF1200D9CFE6FFE1CFD9FF080EE126DE
:10B65000710EDF6EDE52DD6EF36E020EF3CFDBFF96
:10B66000030EDB6A040EDB6A050EDB6A060EDB6A7C
:10B67000BEEC53F0E76E020EE7CFDBFFDB50750840
:10B6800005E1080EE15C01E32AD127D14FEC50F02F
:10B69000E76E070EE7CFDBFFDB502BE0010EF36E0A
:10B6A000050EF3CFDBFF060EDB6AD950050FE96EFE
:10B6B000DACFEAFF010EEE1801E1ED501AE1010EBA
:10B6C000E76E030EDBCF10F0040EDBCF11F0E75076
:10B6D0001026000E112210C0E6FF11C0E6FF34DC78
:10B6E000E552E552050EF3CFDBFF060EF4CFDBFF8C
:10B6F000DCD7E66AE66A620EE66EC70EE66E49ECD5
:10B7000062F0E552E552E552E552E66A010EE66E58
:10B710000C0EE66ECA0EE66E49EC62F0E552E5529A
:10B72000E552E552E66A020EE66E4C0EE66EC70E74
:10B73000E66E49EC62F0E552E552E552E552E66A02
:10B74000030EE66E360EE66EC70EE66E49EC62F04C
:10B75000E552E552E552E552E66A040EE66E200E29
:10B76000E66EC70EE66E49EC62F0E552E552E55230
:10B77000E552E66A050EE66E0A0EE66EC70EE66E46
:10B7800049EC62F0E552E552E552E552E66A060EF2
:10B79000E66E9E0EE66EC90EE66E49EC62F0E5526C
:10B7A000E552E552E55230EC54F0DF6E7DEC54F09A
:10B7B000E76E010EE7CFDBFF780EDF5C15E0030ECE
:10B7C000DBCF10F0040EDBCF11F0113404E2105087
:10B7D0000008000E115408E2D950030FE96EDACFC9
:10B7E000EAFFEE06000EED5A010EDB50780808E085
:10B7F000D950030FE96EDACFEAFFEE2A000EED22F0
:10B80000030EDBCF10F0040EDBCF11F0113404E295
:10B8100010500008000E115404E3030EDB6A040EFE
:10B82000DB6A030EDBCF10F0040EDBCF11F0D890F3
:10B83000115004E6030E105C000E115806E3030ECF
:10B84000F36EF3CFDBFF040EDB6A030EDBCF08F0F1
:10B85000040EDBCF09F0030E081801E1095030E0B7
:10B86000020E081801E1095020E0010E081801E15C
:10B87000095010E0085001E1095001E02CD0B30E4E
:10B88000E66EB20EE66EE6687FEC60F0E552E552D9
:10B89000E55222D0B40EE66EB30EE66EE6687FEC9B
:10B8A00060F0E552E552E55217D0B50EE66EB40EE3
:10B8B000E66EE6687FEC60F0E552E552E5520CD0AA
:10B8C000B60EE66EB50EE66EE6687FEC60F0E55209
:10B8D000E552E55201D000D0CBD6E16AE552E16EE7
:10B8E000E552E7CFD9FF1200D9CFE6FFE1CFD9FF6C
:10B8F000110EE126710EDF6EDE52DD6EF36E020E6A
:10B90000F3CFDBFF710EF36E030EF3CFDBFF040EFC
:10B91000DB6A050EDB6A060EDB6A070EDB6A080EC1
:10B92000DB6A090EDB6A0A0EDB6A0B0EDB6A0C0EA1
:10B93000DB6A0D0EDB6ABEEC53F0E76E020EE7CF5A
:10B94000DBFFDB50750805E1110EE15C01E33ED23F
:10B950003BD24FEC50F0E76E0E0EE7CFDBFFDB5033
:10B9600001E13DD1010EF36E060EF3CFDBFF070EB2
:10B97000DB6AD950060FE96EDACFEAFF010EEE1846
:10B9800001E1ED5039E1D950040FE96EDACFEAFF59
:10B99000010EEE1801E1ED5014E0D950040FE96EEC
:10B9A000DACFEAFF020EEE1801E1ED500AE0D950BD
:10B9B000040FE96EDACFEAFF030EEE1801E1ED5055
:10B9C0001BE1010EE76E040EDBCF10F0050EDBCF9E
:10B9D00011F0E7501026000E112210C0E6FF11C032
:10B9E000E6FFA4EC57F0E552E552060EF3CFDBFF7D
:10B9F000070EF4CFDBFFBDD7D950060FE96EDACFC3
:10BA0000EAFF010EEE1801E1ED5001E0E8D0D95057
:10BA1000040FE96EDACFEAFFEE50ED1001E0DFD05F
:10BA2000CBEC54F00C0EF3CFDBFF0D0EF4CFDBFFAD
:10BA3000BEEC53F0E76E030EE7CFDBFFDB5075087B
:10BA400001E1CDD0E66AE66AF40EE66EC60EE66E59
:10BA500049EC62F0E552E552E552E552E66A010E24
:10BA6000E66E0C0EE66ECA0EE66E49EC62F0E5522A
:10BA7000E552E552E552E66A020EE66EDE0EE66E2D
:10BA8000C60EE66E49EC62F0E552E552E552E5522B
:10BA9000E66A030EE66EC80EE66EC60EE66E49EC6A
:10BAA00062F0E552E552E552E552E66A040EE66EB2
:10BAB000B20EE66EC60EE66E49EC62F0E552E55255
:10BAC000E552E552E66A050EE66E9C0EE66EC60E7F
:10BAD000E66E49EC62F0E552E552E552E552E66A5F
:10BAE000060EE66E9E0EE66EC90EE66E49EC62F03C
:10BAF000E552E552E552E5520C0EDBCF08F00D0E93
:10BB0000DBCF09F0040E081801E1095031E0030E03
:10BB1000081801E1095021E0020E081801E109505E
:10BB200011E0010E081801E1095001E02CD0B30E1C
:10BB3000E66EB20EE66EE6687FEC60F0E552E55226
:10BB4000E55222D0B40EE66EB30EE66EE6687FECE8
:10BB500060F0E552E552E55217D0B50EE66EB40E30
:10BB6000E66EE6687FEC60F0E552E552E5520CD0F7
:10BB7000B60EE66EB50EE66EE6687FEC60F0E55256
:10BB8000E552E55201D000D04FEC50F0E76E0F0EB9
:10BB9000E7CFDBFFDB5022E0010EF36E080EF3CFA0
:10BBA000DBFF090EDB6AD950080FE96EDACFEAFF36
:10BBB000010EEE1801E1ED5011E10C0EDBCFE6FFB6
:10BBC0000D0EDBCFE6FFA4EC57F0E552E552080E70
:10BBD000F3CFDBFF090EF4CFDBFFE5D70DD7E66A25
:10BBE000E66A860EE66EC60EE66E49EC62F0E55237
:10BBF000E552E552E552E66A010EE66E0C0EE66E7F
:10BC0000CA0EE66E49EC62F0E552E552E552E552A5
:10BC1000E66A020EE66E700EE66EC60EE66E49EC41
:10BC200062F0E552E552E552E552E66A030EE66E31
:10BC30005A0EE66EC60EE66E49EC62F0E552E5522B
:10BC4000E552E552E66A040EE66E440EE66EC60E56
:10BC5000E66E49EC62F0E552E552E552E552E66ADD
:10BC6000050EE66E2E0EE66EC60EE66E49EC62F02E
:10BC7000E552E552E552E552E66A060EE66E9E0E84
:10BC8000E66EC90EE66E49EC62F0E552E552E55209
:10BC9000E55230EC54F0DF6E7DEC54F0E76E010EAF
:10BCA000E7CFDBFF780EDF5C15E0040EDBCF10F092
:10BCB000050EDBCF11F0113404E210500008000E25
:10BCC000115408E2D950040FE96EDACFEAFFEE060C
:10BCD000000EED5A010EDB50780808E0D950040F31
:10BCE000E96EDACFEAFFEE2A000EED22040EDBCF7A
:10BCF00010F0050EDBCF11F0113404E210500008F3
:10BD0000000E115404E3040EDB6A050EDB6A040E18
:10BD1000DBCF10F0050EDBCF11F0D890115004E608
:10BD2000030E105C000E115807E3030EF36E040EB1
:10BD3000F3CFDBFF050EDB6A040EDBCF08F0050E48
:10BD4000DBCF09F0030E081801E1095030E0020EC4
:10BD5000081801E1095020E0010E081801E109501E
:10BD600010E0085001E1095001E02CD0B30EE66E5E
:10BD7000B20EE66EE6687FEC60F0E552E552E55201
:10BD800022D0B40EE66EB30EE66EE6687FEC60F08D
:10BD9000E552E552E55217D0B50EE66EB40EE66EEA
:10BDA000E6687FEC60F0E552E552E5520CD0B60E45
:10BDB000E66EB50EE66EE6687FEC60F0E552E552A1
:10BDC000E55201D000D0B7D5E16AE552E16EE55207
:10BDD000E7CFD9FF1200D9CFE6FFE1CFD9FF030E9D
:10BDE000E12645EC50F021EC56F0CBEC54F0F3CFCB
:10BDF000DEFFF4CFDDFF4FEC50F0E76E020EE7CF31
:10BE0000DBFFDB5026E0000EDFCF08F0010EDBCFBA
:10BE100009F0040E081801E1095019E0030E081892
:10BE200001E1095011E0020E081801E1095009E092
:10BE3000010E081801E1095001E00BD089EC56F021
:10BE400008D051EC58F005D022EC5BF002D04CDD6C
:10BE500000D0C9D7030EE15C02E2E16AE552E16E6F
:08BE6000E552E7CFD9FF120003
:08BE6800D9CFE6FFE1CFD9FFBD
:10BE7000020EE126FD0EDBCF10F0DB06FE0EDBCF5F
:10BE800011F001E2DB061050111011E0DE6ADD6AEC
:10BE9000DECF10F0DDCF11F0E30E105C0D0E115867
:10BEA00005E2DF2A010E01E3DB2AF2D7E3D7020E17
:10BEB000E15C02E2E16AE552E16EE552E7CFD9FFCB
:10BEC0001200D9CFE6FFE1CFD9FF060EE1268D9211
:10BED00096928D9096908D8496948A9A939A8C924D
:10BEE000DE6ADE6ADE6ADD6ADD52DD52D9CFE9FF45
:10BEF000DACFEAFF640EEE5C000EEE58000EEE584C
:10BF0000000EEE580AE2D9CFE9FFDACFEAFFEE2AB7
:10BF1000000EEE22EE22EE22E9D78C82DE6ADE6A85
:10BF2000DE6ADD6ADD52DD52D9CFE9FFDACFEAFF02
:10BF3000640EEE5C000EEE58000EEE58000EEE5849
:10BF40000AE2D9CFE9FFDACFEAFFEE2A000EEE22AD
:10BF5000EE22EE22E9D7AE0EE66E70D8E552DB0E89
:10BF6000E66E6CD8E552230EE66E68D8E552D90E1F
:10BF7000E66E64D8E552220EE66E60D8E552A10E58
:10BF8000E66E5CD8E552C80EE66E58D8E552DA0E79
:10BF9000E66E54D8E552120EE66E50D8E552A80E61
:10BFA000E66E4CD8E5523F0EE66E48D8E552D50E07
:10BFB000E66E44D8E552A00EE66E40D8E552810EFA
:10BFC000E66E3CD8E552600EE66E38D8E552D30EE8
:10BFD000E66E34D8E552E66A31D8E552A60EE66E32
:10BFE0002DD8E552AD0EE66E29D8E5528B0EE66EE1
:10BFF00025D8E552AF0EE66E21D8E5520A0EE66E60
:10C00000E66A32DFE552E552A40EE66E17D8E55235
:10C01000400EE66E13D8E552020EE66E0FD8E552DA
:10C02000100EE66E0BD8E552060EE15C02E2E16A04
:10C03000E552E16EE552E7CFD9FF1200D9CFE6FF16
:10C04000E1CFD9FF956AFE0EDB508C6E8D808D821C
:10C050008A9A8D948D928D828D849568E552E7CF72
:10C06000D9FF1200D9CFE6FFE1CFD9FF956AFE0EC6
:10C07000DB508C6E8D808D828A8A8D948D928D821C
:10C080008D849568E552E7CFD9FF1200D9CFE6FF3E
:10C09000E1CFD9FF020EE126B00EDF6EB80EDF5CF5
:10C0A00023E2DFCFE6FFCADFE552020EE66EC6DF0F
:10C0B000E552100EE66EC2DFE552010EDB6ADB5080
:10C0C000106E116AD890115004E6840E105C000EB8
:10C0D000115808E2FE0EDBCFE6FFC4DFE552010E89
:10C0E000DB2AEDD7DF2ADAD7020EE15C03E200D0CB
:10C0F000E16AE552E16EE552E7CFD9FF1200D9CFF0
:10C10000E6FFE1CFD9FF040EE126FD0EDB50DF6E26
:10C11000FC0EDB50DF5C57E2DFCFE6FF8FDFE5523E
:10C12000020EE66E8BDFE552100EE66E87DFE552FB
:10C13000FD0EDB50B50A1FE0010A15E0070A0BE00F
:10C14000010A01E020D05F0EF36E020EF3CFDBFF99
:10C15000030EDB6A18D05A0EF36E020EF3CFDBFF2C
:10C16000030EDB6A10D0350EF36E020EF3CFDBFF49
:10C17000030EDB6A08D0410EF36E020EF3CFDBFF35
:10C18000030EDB6A00D0010EDB6ADB50106E116A11
:10C19000020EDBCF12F0030EDBCF13F01150131899
:10C1A000E8AE02D0133404D01250105C1350115872
:10C1B00008E2FE0EDBCFE6FF55DFE552010EDB2A7B
:10C1C000E4D7DF2AA5D7040EE15C03E200D0E16AE0
:10C1D000E552E16EE552E7CFD9FF1200D9CFE6FF75
:10C1E000E1CFD9FF040EE126FD0EDB50DF6EFC0E21
:10C1F000DB50DF5C23E2DFCFE6FF20DFE552020EFB
:10C20000E66E1CDFE552100EE66E18DFE552010EF9
:10C21000DB6ADB50106E116AD890115004E6840E70
:10C22000105C000E115808E2FE0EDBCFE6FF1ADFAD
:10C23000E552010EDB2AEDD7DF2AD9D7040EE15CE7
:10C2400003E200D0E16AE552E16EE552E7CFD9FFA3
:10C250001200D9CFE6FFE1CFD9FF020EE126DE6A58
:10C26000DD6AFD0EDB50B00FE76EFD0EE7CFDBFFA2
:10C27000FD0EDBCFE6FFE2DEE552020E106EFC0E95
:10C28000DBCFE7FF1050E726FC0EE7CFDBFFDB50EC
:10C290000F0BE66ED3DEE552FC0EDB380F0B0F0BF7
:10C2A000100FE66ECBDEE552DECF10F0DDCF11F0E1
:10C2B000FA0EDBCF12F0FB0EDBCF13F01350111888
:10C2C000E8AE02D0113404D01050125C1150135853
:10C2D0000AE3FE0EDBCFE6FFC5DEE552DF2A010EE4
:10C2E00001E3DB2AE1D7E66ABDDEE552020EE15C3E
:10C2F00002E2E16AE552E16EE552E7CFD9FF1200B2
:10C30000D9CFE6FFE1CFD9FF200E106EFE0EDBCFB6
:10C31000E7FF1050E75EFE0EE7CFDBFFDBCFF6FF57
:10C32000F76AF6BEF768050EF702F3CFF7FFF602DD
:10C33000F3CFF6FFF450F7269A0EF626D00EF7222A
:10C340000800F550E66E8EDEE552FE0EDBCFF6FFFE
:10C35000F76AF6BEF768050EF702F3CFF7FFF602AD
:10C36000F3CFF6FFF450F7269A0EF626D00EF722FA
:10C37000010EF626000EF7220800F550E66E72DE7A
:10C38000E552FE0EDBCFF6FFF76AF6BEF768050E44
:10C39000F702F3CFF7FFF602F3CFF6FFF450F726DC
:10C3A0009A0EF626D00EF722020EF626000EF7227F
:10C3B0000800F550E66E56DEE552FE0EDBCFF6FFC6
:10C3C000F76AF6BEF768050EF702F3CFF7FFF6023D
:10C3D000F3CFF6FFF450F7269A0EF626D00EF7228A
:10C3E000030EF626000EF7220800F550E66E3ADE40
:10C3F000E552FE0EDBCFF6FFF76AF6BEF768050ED4
:10C40000F702F3CFF7FFF602F3CFF6FFF450F7266B
:10C410009A0EF626D00EF722040EF626000EF7220C
:10C420000800F550E66E1EDEE552E66A1BDEE552B8
:10C4300000D0E552E7CFD9FF1200D9CFE6FFE1CF18
:10C44000D9FFE652FD0EDBCFE6FFF8DDE552020E26
:10C45000106EFC0EDBCFE7FF1050E726FC0EE7CF97
:10C46000DBFFDB500F0BE66EE9DDE552FC0EDB383F
:10C470000F0B0F0B100FE66EE1DDE552FE0EDBCF6A
:10C48000E6FF3EDFE55200D0E552E552E7CFD9FFA7
:10C490001200D9CFE6FFE1CFD9FFFC0EDB50B00F81
:10C4A000E76EFC0EE7CFDBFFFB0EDBCFE6FFFC0EFB
:10C4B000DBCFE6FFFD0EDBCFF6FFFE0EDBCFF7FF97
:10C4C0000800F550E66EB9DFE552E552E552FD0E83
:10C4D000DB2ADBCFF6FFFE0E01E3DB2ADBCFF7FF23
:10C4E0000800F5500CE0FD0EDBCFF6FFFE0EDBCFB3
:10C4F000F7FF0800F550E66E03DFE552E8D7E55296
:10C50000E7CFD9FF1200D9CFE6FFE1CFD9FFFC0E6C
:10C51000DB50B00FE76EFC0EE7CFDBFFFB0EDBCF8F
:10C52000E6FFFC0EDBCFE6FFFD0EDBCFE9FFFE0EE4
:10C53000DBCFEAFFEF50E66E80DFE552E552E552D1
:10C54000FD0EDB2ADBCFE9FFFE0E01E3DB2ADBCFAA
:10C55000EAFFEF500BE0FD0EDBCFE9FFFE0EDBCF75
:10C56000EAFFEF50E66ECCDEE552EAD7E552E7CFC0
:10C57000D9FF1200D9CFE6FFE1CFD9FF050EE126A2
:10C58000030EDB6A040EDB6A020E106EFA0EDBCFBE
:10C59000E7FF1050E726FA0EE7CFDBFFF90EDB507E
:10C5A000B00FDF6EFB0EDB50B00FDF5C35E2DFCF8C
:10C5B000E6FF44DDE552FA0EDB500F0BE66E3EDD82
:10C5C000E552FA0EDB380F0B0F0B1009E66E36DD65
:10C5D000E552010EDB6AFC0EDB50F36E010EDBCF81
:10C5E000F4FFF350F45C16E2030EDB2A040E01E3C1
:10C5F000DB2AFD0EDBCFF6FFDB2AFE0EDBCFF7FFDB
:10C6000001E3DB2A0800F550E66E2CDDE552010E51
:10C61000DB2AE1D7DF2AC6D7050EE15C03E200D0B2
:0EC62000E16AE552E16EE552E7CFD9FF120064
:02C62E003420B6
:10C630002D204B69647320202020202020202020E2
:10C640002020200033202D2054524620202020205E
:10C650002020202020202020200032202D20576F55
:10C660006D656E202020202020202020202020000A
:10C6700031202D204D656E202020202020202020DC
:10C68000202020202000436C6F74686573202020D8
:10C6900020202020202020202020200034202D2099
:10C6A000542D53686972747320202020202020208C
:10C6B000200033202D2050616E7473202020202014
:10C6C000202020202020200032202D2053686F655C
:10C6D0007320202020202020202020202000312016
:10C6E0002D2043617375616C2020202020202020A4
:10C6F000202020004D656E2020202020202020209A
:10C700002020202020202020200034202D20436FB6
:10C710006F6B696E672020202020202020202000C1
:10C7200033202D204B6964732020202020202020DE
:10C7300020202020200032202D20416374696F6E5C
:10C7400020202020202020202020200031202D20EB
:10C75000526F6D616E732020202020202020202029
:10C760002000426F6F6B732020202020202020208B
:10C77000202020202020200031362E456C65637457
:10C78000726F6E696373204974656D31360031359F
:10C790002E456C656374726F6E69637320497465AE
:10C7A0006D31350031342E456C656374726F6E697E
:10C7B0006373204974656D31340031332E456C65E7
:10C7C0006374726F6E696373204974656D313300F1
:10C7D00031322E456C656374726F6E6963732049E4
:10C7E00074656D31320031312E456C656374726F42
:10C7F0006E696373204974656D31310031302E45A7
:10C800006C656374726F6E696373204974656D3112
:10C810003000392E456C656374726F6E69637320E6
:10C820004974656D39202000382E456C656374723B
:10C830006F6E696373204974656D38202000372E50
:10C84000456C656374726F6E696373204974656DBE
:10C8500037202000362E456C656374726F6E6963F5
:10C8600073204974656D36202000352E456C656354
:10C8700074726F6E696373204974656D3520200092
:10C88000342E456C656374726F6E696373204974EE
:10C89000656D34202000332E456C656374726F6EB5
:10C8A000696373204974656D33202000322E456C16
:10C8B000656374726F6E696373204974656D3220AD
:10C8C0002000312E456C656374726F6E696373204E
:10C8D0004974656D31202000456C656374726F6E1C
:10C8E0006963732020202020202020202000202089
:10C8F00020202020746F20676F206261636B2020EE
:10C9000020202000202020202020707265737320BA
:10C910006C656674202020202000416374696F6E6E
:10C920002020207761732070726573736564200026
:10C9300034202D204F746865722020202020202074
:10C9400020202020200033202D2047617264656E56
:10C9500020202020202020202020200032202D20D8
:10C960004B69746368656E20546F6F6C7320202070
:10C97000200031202D204675726E697475726573C2
:10C980002020202020202000486F6D65264B6974F0
:10C990006368656E20202020202020202000202099
:10C9A0002020202020202020202020202020202087
:10C9B0002020200034202D20436C6F746865732084
:10C9C0002020202020202020200033202D20426FF6
:10C9D0006F6B73202020202020202020202020008A
:10C9E00032202D20456C656374726F6E696373200D
:10C9F00020202020200031202D20486F6D65264BFF
:10CA000069746368656E202020202000200057652F
:10CA10006C636F6D6520546F20416D617A6F6E207D
:04CA200020202000B2
:0CCA2400D9CFE6FFE1CFD9FF030EE126D9
:10CA300059D8736A820E726E739C94949396958CF7
:10CA40007288728A949EE66AD0D8E552E76E020E2A
:10CA5000E7CFDBFF0000D950020FE96EDACFEAFF23
:10CA6000EF50070B020801E00000140EE66EBDD87F
:10CA7000E552E76E020EE7CFDBFF020EDB96DB88A6
:10CA8000020EDB80DB92DB94020EDBCFE6FF140E9E
:10CA9000E66E3AD8E552E552010EE66EA6D8E552AA
:10CAA000DE6EDD6A0000110EE66E9FD8E552DE6E86
:10CAB000DD6A0000E66A110EE66E26D8E552E55200
:10CAC0000000110EE66E91D8E552DE6EDD6A0000C0
:10CAD000030EE15C02E2E16AE552E16EE552E7CF66
:10CAE000D9FF1200550EA76EAA0EA76E0E01FF9178
:10CAF000090ECC6F0A0ED36F170EFB6F550EA76E83
:10CB0000AA0EA76EFF811200D9CFE6FFE1CFD9FFB1
:10CB1000E652DF6AFE0EDB50140804E0FE0EDB5026
:10CB2000340806E1140EE66E60D8E552E00BDF6EC5
:10CB30008B9EA49EFE0EDB50756EA4AEFED7000049
:10CB400000000000000000000000000000000000E5
:10CB500000000000000000000000000000000000D5
:10CB600000000000000000000000000000000000C5
:10CB700000000000000000000000000000000000B5
:10CB800000000000000000000000000000000000A5
:10CB90000000000000000000000000000000000095
:10CBA0000000000000000000000000000000000085
:10CBB0000000000000000000000000000000A49E33
:10CBC000FE0EDB500A0805E1FD0EDB507F0B756E93
:10CBD00004D0FD0EDB50DF10756EA4AEFED78B8E39
:10CBE000E552E552E7CFD9FF1200D9CFE6FFE1CFFA
:10CBF000D9FF8B9EA49EFE0EDB508009756EA4AEFD
:10CC0000FED700000000000000000000000000004F
:10CC10000000000000000000000000000000000014
:10CC20000000000000000000000000000000000004
:10CC300000000000000000000000000000000000F4
:10CC400000000000000000000000000000000000E4
:10CC500000000000000000000000000000000000D4
:10CC600000000000000000000000000000000000C4
:10CC700000000000000000000000000000000000B4
:10CC80000000A49E756AA4AEFED78B8E755000D0AE
:08CC9000E552E7CFD9FF1200C5
:08CC9800FF0EE3CFEAFFE552B5
:10CCA000FF0EE3CFE9FFE552E66AE66AD9CFE6FF79
:10CCB000DACFE6FFFC0EE124D96EFF0EE220DA6E39
:10CCC000E66AE66AE66A200EEF5C06E0090EEF5CB3
:10CCD00003E0EF6603D03FD0EE50F5D72D0EEF5CAA
:10CCE00003E1FF0EE32A03D02B0EEF5C01E1EE50CF
:10CCF0002F0EEF6424D03A0EEF6021D0D890F90EB9
:10CD0000E336FA0EE336FD0EDECFE3FFFE0EDDCF97
:10CD1000E3FFD890F90EE336FA0EE336D890F90E19
:10CD2000E336FA0EE336FD0EE350DE26FE0EE35048
:10CD3000DD22300EEE5CDE26000EDD22D9D7FF0E9E
:10CD4000E3CFE8FFE85207E0F90EE31EE32AFA0E0C
:10CD5000D8B4E306E31EE552E552E552FF0EE3CFF9
:10CD6000DAFFE552FF0EE3CFD9FFE552E1CFE9FF4D
:10CD7000E2CFEAFFED52ED52EECFF3FFEFCFF4FF3B
:10CD80001200D9CFE6FFDACFE6FFFA0EE3CFD9FFE4
:10CD9000FB0EE3CFDAFFFD0EE35209E72D0EDE6E48
:10CDA000FC0EE31EE32AFD0ED8B4E306E31EE652B2
:10CDB000E652E652FD0EE124E76EFF0EE220E46E3D
:10CDC000E652F70EE3CFE6FFF70EE3CFE6FF31ECD6
:10CDD00067F0F90EE124E96EFF0EE220EA6E21EC25
:10CDE00067F00AE11EEC67F009E121EC67F008E169
:10CDF0001EEC67F007E108D02CEC67F027EC67F039
:10CE00002CEC67F027EC67F02CEC67F0DE6AF90E8B
:10CE1000E126FF0EE222FF0EE3CFDAFFE552FF0E1E
:10CE2000E3CFD9FFE552FC0EE124E96EFF0EE220CC
:10CE3000EA6EEECFF3FFEFCFF4FF1200EF380F0BE7
:10CE40001200EF500F0B02E1EE52D8841200EF38BF
:10CE50000F0B300FDE6E1200EE500F0B300FDE6E38
:10CE60001200FC0EE3CFE9FFFD0EE3CFEAFF100E48
:10CE7000E66EEE6AEE6AEF6AD890FD0EE336FE0EBD
:10CE8000E336ED36ED36EF36FF0EE30609E052EC01
:10CE900067F0EE5252EC67F0EE5252EC67F0EDD7CD
:10CEA000E56E1200030EEF24E8B6EF6E300EEF24AD
:06CEB000E8BEEF6E000C6D
:0ACEB600030EB16EB392B390B39671
:10CEC000B288B28EB290B292A494B38E12002F0E9A
:10CED000926E0F01E00E486F1F0E496FC18EC19C0C
:10CEE000C70EC1140809C16EF80EC1140209C16E43
:10CEF000498FC29CC29EC30EC2140809C26EC28072
:10CF00001200D9DF67EF67F0D9CFE6FFE1CFD9FF95
:10CF1000020EE126FE0EDB500F0BF36EF346F346D6
:10CF2000C30EC214F310C26EFE0EDB50EA6A800F0D
:10CF3000E96E000EEA22EF503F0BF36EF346F34624
:10CF4000030EB114F310B16EB38EB3820000000073
:10CF500000000000000000000000000000000000D1
:10CF600000000000000000000000000000000000C1
:10CF700000000000B392B28000000000000000003A
:10CF800000000000000000000000000000000000A1
:10CF90000000000000000000000000000000000091
:10CFA000B2909E9CC2829EACFED7C3CFDEFFC4CFA0
:10CFB000DDFFDECF10F0DDCF11F010C0F3FF11C0A8
:10CFC000F4FF00D0020EE15C02E2E16AE552E16E9C
:10CFD000E552E7CFD9FF1200D9CFE6FFE1CFD9FF65
:10CFE000030EE126020EDB6A040EF36E020EDBCFA7
:10CFF000F4FFF350F45C21E22AD8EF6A30D80CE257
:10D0000026D8EF501F0803E122D8EF6A13D01FD8AB
:10D01000EF2A25D8F5E30ED02CD80CE218D8EF5023
:10D02000E10803E114D8EF6A05D011D8EF062BD838
:10D0300020D8F4E3020EDB2AD7D7030EE15C02E22C
:10D04000E16AE552E16EE552E7CFD9FF1200020E28
:10D05000DB50EA6A800FE96E000EEA22120013D854
:10D06000DECF10F0DDCF11F0200E105C030E115852
:10D070001200D9CFE9FFDACFEAFF200ED880EE54B4
:10D08000030EED541200020EDBCFE6FF3DDFE5524A
:0AD09000F3CFDEFFF4CFDDFF120046
:06D09A0000000000000090
:10D0A000004F00000007000700147F147F14242A9B
:10D0B0007F2A122313086462364955225000050363
:10D0C0000000001C2241000041221C0014083E0800
:10D0D0001408083E08080050300000080808080836
:10D0E000006060000020100804023E5149453E00E7
:10D0F000427F400042615149462141454B3118145D
:10D10000127F1027454545393C4A4949300171098C
:10D1100005033649494936064949291E0036360075
:10D120000000563600000814224100141414141490
:10D1300000412214080201510906324979413E7E1C
:10D140001111117E7F494949363E414141227F41BB
:10D1500041221C7F494949417F090909013E414952
:10D16000497A7F0808087F00417F41002040413F05
:10D17000017F081422417F404040407F020C027F23
:10D180007F0408107F3E4141413E7F090909063E68
:10D190004151215E7F09192946464949493101011A
:10D1A0007F01013F4040403F1F2040201F3F40384B
:10D1B000403F63140814630708700807615149452C
:10D1C00043007F41410002040810200041417F00DC
:10D1D00004020102044040404040000102040020DB
:10D1E000545454787F4844443838444444203844A4
:10D1F00044487F3854545418087E0901020C525296
:10D20000523E7F0804047800447D40002040443DA5
:10D21000007F1028440000417F40007C04180478FF
:10D220007C0804047838444444387C1414140808F6
:10D230001414187C7C080404084854545420043FF7
:10D240004440203C4040207C1C2040201C3C40307E
:10D25000403C44281028440C5050503C4464544CEA
:10D2600044000836410000007F00000041360800FD
:05D270000201020402AE
:01D2750000B8
:0AD27600000184B122D084838B8074
:10D280009490550EA76EAA0EA76E0E01FF910E0E7A
:10D29000D16F550EA76EAA0EA76EFF810F0EBA6E44
:10D2A000CF0EBA140009BA6EBB6A0F01526B800E22
:10D2B000CB6E040ECA6EA496600E776E7F0E766EED
:10D2C00012000001849184938B80949012000001DD
:10D2D00084A109D08B50010B04E19450010B01E1B2
:10D2E000010C8491C8DF000184A3C5DFA4A63AD055
:10D2F000A496BA50300BE842E842E842E8420308FC
:10D3000019E1400EBB5C10E18B909490BA6ACA6A36
:10D310000E01D16B0F01526BCB68766A7768A496C9
:10D32000000184818493010CBB2ACF0EBA1400093A
:10D33000BA6E000CBA0EE96E0F0EEA6EEF50300BAB
:10D34000E842E842E842E842E82AE850030BF36E7C
:10D35000F46EF346F346F346F346CF0EEF14F310A4
:06D36000EF6EF450000C1A
:0AD366001E0EF66EA00EF76E000E0C
:10D37000F86E00010900F550706F0900F550716FEB
:10D3800003E1706701D03DD00900F5506B6F0900D3
:10D39000F5506C6F0900F5506D6F09000900F550EC
:10D3A000E96E0900F550EA6E090009000900F55020
:10D3B0006E6F0900F5506F6F09000900F6CF72F02B
:10D3C000F7CF73F0F8CF74F06BC0F6FF6CC0F7FFC7
:10D3D0006DC0F8FF00016E5302E16F5307E00900D2
:10D3E000F550EE6E6E07F8E26F07F9D772C0F6FFE0
:10D3F00073C0F7FF74C0F8FF00017007000E715B87
:04D40000BFD7120080
:0CD40400006A0EAE0BEF6AF00D6C0E1EFD
:10D41000E86A0E22001E09AE13EF6AF0086C091EBE
:10D42000E86A0922001E28EC6AF009BE23EF6AF0C0
:10D4300000AE000C086C091EE86A0922046C051E87
:10D44000E86A0522000C00BE1AEF6AF00188FF0CA2
:10D45000056A046A100EE76ED8900836093604365D
:10D4600005360D50045C0E50055805E30D50045E62
:0CD470000E50055A082AE72EF0D71200D3
:04D47C00C00EF36E7D
:10D4800000EE00F00E0E01D81200EA6002D0EE6A43
:0CD49000FCD7F350E9601200EE6AFCD7F4
:04D49C001DEE00F091
:10D4A0002DEE00F0F86A019CB3EC69F003EC50F04B
:08D4B000EBEC5EF0FBD712006B
:01FFF800AA5E
:01FFF900F710
:01FFFA001FE7
:01FFFB00FF06
:01FFFC0063A1
:01FFFD00F80B
:01FFFE008181
:01FFFF00F110
:00000001FF
